:0300000002000EED
:10000B0002003830B70302000E12008220B7030241
:10001B000017758961758D00758B007F14758C3C8D
:10002B00758AB0D28CD28ED2A9D2AF80FE758C3CA1
:10003B00758AB0DF5CAA8BAB8DEA4BFCEC7580FD4F
:10004B0075F0648412007112008F7580FBE5F075FA
:10005B00F00A8412007112008F7580F7E5F0120020
:10006B007112008F80D690007893F5A0223F065B2B
:10007B004F666D7D077F6F7D147EF87F0ADFFEDE96
:10008B00FADDF6227D147E017FF8DFFEDEFADDF667
:02009B0022320F
:00000001FF
