:03000000020230C9
:0C023000787FE4F6D8FD7581110202779A
:0A02F900C0CFA4B0999282F8809063
:0303030001091ECF
:0C02DF007F647E147DF8DDFEDEFADFF6A1
:0102EB0022F0
:1002BC0075A004E5109002F993F5801202D275A096
:0602CC0008E51193F58026
:0C02D2007F017E147DF8DDFEDEFADFF611
:0102DE0022FD
:0C02EC007F287E147DF8DDFEDEFADFF6D0
:0102F80022E3
:10000300309003020221E50975F00A84F510E50931
:1000130075F00A8485F0111202BCE4F5A07580FF27
:1000230015091202DFE5B0B4FE05750801804FE53E
:10003300B0B4FD057508028045E5B0B4FB0575084D
:1000430003803BE5B0B4F7057508048031E5B0B42F
:10005300EF057508058027E5B0B4DF057508068050
:100063001DE5B0B4BF057508078013E5B0B47F057F
:100073007508088009E509708DC293020009120210
:10008300BC75A001E50893F5801202D22091EF051B
:100093000AE4F5A07580FFE5B0B4FE0CE50E700828
:1000A3001202EC750801050EE5B0B4FE0DE50EB4C1
:1000B30001081202EC750B01050EE5B0B4FD0CE569
:1000C3000E70081202EC750802050EE5B0B4FD0DC2
:1000D300E50EB401081202EC750B02050EE5B0B48F
:1000E300FB0CE50E70081202EC750803050EE5B073
:1000F300B4FB0DE50EB401081202EC750B03050EFB
:10010300E5B0B4F70CE50E70081202EC75080405AF
:100113000EE5B0B4F70DE50EB401081202EC750B51
:1001230004050EE5B0B4EF0CE50E70081202EC7591
:100133000805050EE5B0B4EF0DE50EB40108120293
:10014300EC750B05050EE5B0B4DF0CE50E70081277
:1001530002EC750806050EE5B0B4DF0DE50EB4013B
:10016300081202EC750B06050EE5B0B4BF0CE50EE4
:1001730070081202EC750807050EE5B0B4BF0DE573
:100183000EB401081202EC750B07050EE5B0B47F3F
:100193000CE50E70081202EC750808050EE5B0B404
:1001A3007F0DE50EB401081202EC750B08050EE590
:1001B3000E6402600302009A75A004E5089002F938
:1001C30093F5801202D275A008E50B93F580120215
:1001D300D22092E4E50875F00AA4250BF50CE50C92
:1001E30075F00A84F50FE50C75F00A8485F00D753A
:1001F300A004E50F9002F993F5801202D275A008CE
:10020300E50D93F5801202D2E4F5A07580FF150C7D
:100213001202DFE50C70C7C293F5A07580FF309022
:0D0223000BE5B0F46006E50A7002C29322FC
:10023C00020003E493A3F8E493A34003F68001F2D5
:10024C0008DFF48029E493A3F85407240CC8C333C3
:10025C00C4540F4420C8834004F456800146F6DF92
:10026C00E4800B0102040810204080900303E47E1C
:10027C00019360BCA3FF543F30E509541FFEE49387
:10028C00A360010ECF54C025E060A840B8E493A34E
:10029C00FAE493A3F8E493A3C8C582C8CAC583CA79
:1002AC00F0A3C8C582C8CAC583CADFE9DEE780BE31
:0103060000F6
:00000001FF
